:020000040800F2
:100000000020002061190008550900085709000860
:1000100000000000000000000000000000000000E0
:100020000000000000000000000000005909000866
:1000300000000000000000005B0900085D090008E6
:10004000B1190008B1190008B1190008B119000868
:10005000B119000829060008B1190008B1190008F3
:10006000B1190008B1190008B119000865090008A4
:10007000B1190008B1190008B1190008B119000838
:10008000B1190008B119000800000000B1190008FA
:10009000B1190008B1190008B1190008B119000818
:1000A000B1190008B1190008B1190008B119000808
:1000B000B119000800000000B1190008000000009C
:1000C00010B5064C2378002B07D1054B002B02D02E
:1000D000044800E000BF0123237010BD0C0600207F
:1000E000000000000C1A0008044B10B5002B03D0D0
:1000F0000349044800E000BF10BDC04600000000F6
:10010000100600200C1A0008002243088B4274D30A
:1001100003098B425FD3030A8B4244D3030B8B4208
:1001200028D3030C8B420DD3FF22090212BA030C11
:100130008B4202D31212090265D0030B8B4219D3F2
:1001400000E0090AC30B8B4201D3CB03C01A524112
:10015000830B8B4201D38B03C01A5241430B8B425A
:1001600001D34B03C01A5241030B8B4201D30B0343
:10017000C01A5241C30A8B4201D3CB02C01A52416A
:10018000830A8B4201D38B02C01A5241430A8B422D
:1001900001D34B02C01A5241030A8B4201D30B0216
:1001A000C01A5241CDD2C3098B4201D3CB01C01A30
:1001B000524183098B4201D38B01C01A524143093A
:1001C0008B4201D34B01C01A524103098B4201D328
:1001D0000B01C01A5241C3088B4201D3CB00C01A95
:1001E000524183088B4201D38B00C01A524143080D
:1001F0008B4201D34B00C01A5241411A00D2014632
:10020000524110467047FFE701B5002000F006F8A4
:1002100002BDC0460029F7D076E770477047C04658
:1002200010B586B004AC08220021200001F0C1FB0B
:100230001E4B5A698021C9030A435A615A690A4010
:100240000392039A5A69802189020A435A615A69C2
:100250000A400292029A5A698021C9020A435A61ED
:100260005B690B400193019B114A93680F218B43FB
:1002700093609021C905CB68032083430122134377
:10028000CB600B6883430B6004922271002363717F
:10029000A271200000F0BAFB00220021052000F02E
:1002A00065FC052000F066FC06B010BD00100240A1
:1002B0000000014000B583B0094A51690123194388
:1002C0005161526913400193019B002200210B20D0
:1002D00000F04CFC0B2000F04DFC03B000BDC0460C
:1002E0000010024082B0430018180023019304E07C
:1002F000C046C046019B01330193019B8342F7D363
:1003000002B0704770B51420FFF7ECFF0A4CA369E8
:1003100080252D022B43A3611420FFF7E3FFA26980
:1003200080231B061343A3611420FFF7DBFFA3699F
:100330001D43A56170BDC0460008004810B504000B
:10034000454A91698023DB010B43936143B2002B43
:1003500046DB9022D205916980231B060B439361F3
:10036000630645D59022D205916980235B010B433A
:100370009361A30644D5394A916980239B000B43BE
:100380009361E30643D5354A916980235B000B43B3
:100390009361FFF7B7FF230740D59022D2059169FB
:1003A00080231B020B43936163073FD59022D20544
:1003B000916980235B010B439361A3073ED5274AD4
:1003C000916980239B000B439361E4073DD5234A49
:1003D000916980235B000B439361FFF793FF10BD8E
:1003E0009022D205916980231B020B439361B7E7EA
:1003F0009022D205916980235B050B439361B8E796
:10040000164A916980239B040B439361B9E7134A11
:10041000916980235B040B439361BAE79022D20574
:10042000916980231B060B439361BDE79022D2059F
:10043000916980235B050B439361BEE7074A91698D
:1004400080239B040B439361BFE7044A9169802397
:100450005B040B439361C0E70008004800040048B8
:1004600070B50500002403E0FFF768FF0134E4B233
:10047000285D0028F8D170BD10B50400474A916985
:100480008023DB050B43936143B2002B49DB9022B1
:10049000D205916980231B060B439361630648D5FF
:1004A0009022D205916980235B010B439361A306DF
:1004B00047D53B4A916980239B000B439361E30638
:1004C00046D5374A916980235B000B439361FFF760
:1004D00019FF230743D59022D205916980231B027F
:1004E0000B439361630742D59022D2059169802323
:1004F0005B010B439361A30741D5294A916980238E
:100500009B000B439361E40740D5254A9169802302
:100510005B000B439361FFF7F5FE2248FFF7E2FE15
:1005200010BD9022D205916980231B020B43936179
:10053000B4E79022D205916980235B050B43936158
:10054000B5E7174A916980239B040B439361B6E793
:10055000134A916980235B040B439361B7E79022B0
:10056000D205916980231B060B439361BAE7902261
:10057000D205916980235B050B439361BBE7084A71
:10058000916980239B040B439361BCE7044A916902
:1005900080235B040B439361BDE7C046000800481D
:1005A00000040048B80B000010B51B4B59698022AD
:1005B00092020A435A6159698022D2020A435A615F
:1005C0005969802212030A435A619022D2051168A8
:1005D0008223DB050B431360104A1168A023DB0262
:1005E0000B4313600E4A1168A023DB050B43136015
:1005F0000C48FFF777FE3320FFF73EFF3220FFF76E
:100600003BFF0C20FFF738FF2820FFF735FF0120C4
:10061000FFF732FF10BDC046001002400004004842
:10062000000800483075000010B500F0E9F92C4BC7
:100630001B68C31A952B03D8012000F073FC10BD72
:10064000274B1860274800F030FB274B1B78012B05
:1006500023D0022B2BD0002B15D0244B1A68D16845
:1006600080239B000B43D3601F4B1B78012B28D0AA
:10067000022B2DD0002BDFD10120FFF7FDFE1C48FF
:10068000FFF7EEFED8E7184B01221A7019491548FA
:100690008023194A00F0CEFADFE7134B02221A70CA
:1006A000164910488023144A00F0C4FAD5E70E4BCF
:1006B00000221A7012490B4880230F4A00F0BAFA40
:1006C000CBE70120FFF7D8FE0E48FFF7C9FEB3E7DE
:1006D0000120FFF7D1FE0C48FFF7C2FEACE7C04691
:1006E0002C0600203006002028060020BC06002032
:1006F000241A0008000400203C04004000020020EE
:1007000000000020341A0008481A000872B6FEE7FC
:1007100000B58FB0102200210AA801F04AF9082282
:10072000002108A801F045F91C22002101A801F0D0
:1007300040F91F488023DB0503600023436083608A
:100740006422C26003618033836100F041FD0028B0
:1007500024D180235B010A9315480AA900F0B0FE5A
:1007600000281DD1124800F05FFD00281AD1002397
:10077000089309930E4808A901F030F8002813D116
:10078000002301930293039305930948002201A9D2
:1007900000F0E4FD002809D10FB000BDFFF7B6FF5F
:1007A000FFF7B4FFFFF7B2FFFFF7B0FFFFF7AEFFB1
:1007B000BC06002000B58FB0102200210AA801F06D
:1007C000F8F80822002108A801F0F3F81C22002103
:1007D00001A801F0EEF82148214B0360002343609B
:1007E0008360204AC26003618033836100F0F0FCC3
:1007F000002828D180235B010A9318480AA900F039
:100800005FFE002821D1154800F03AFD00281ED1D6
:10081000002308930993114808A900F0DFFF00287E
:1008200017D16023019300230293039305930B4890
:10083000082201A900F0C0FD00280CD1074801F0F2
:1008400061F80FB000BDFFF761FFFFF75FFFFFF733
:100850005DFFFFF75BFFFFF759FFC04674060020FE
:1008600000040040FF03000010B51A4A136801217C
:100870008B431360174B1B68DB07FBD4164A1368C6
:1008800001210B431360144B1B689B07FBD5124BD4
:100890001A68F8218A4378390A431A605A68703115
:1008A0008A435A605A680D490A405A605A680321BF
:1008B0008A435A60084B5B680C221A42FAD10848F6
:1008C00001F048F8032000F057F8002800D110BDCF
:1008D000FFF71CFF0020024000100240FFF8FFFF5E
:1008E00000127A0010B500F06FF8FFF75DFEFFF719
:1008F000BBFFFFF795FCFFF7DDFCFFF709FFFFF7F4
:1009000059FF0E48082100F0EBFE0D4C002120009D
:1009100000F068FE0B490C4880230C4A00F08AF96D
:100920000120FFF7A9FD0A48FFF79AFD2268D16868
:1009300080239B000B43D360FEE7C0467406002073
:10094000BC06002000040020300600203C040040CB
:10095000241A0008FEE7FEE77047704710B500F064
:1009600043F810BD10B5024800F0C1F910BDC046F3
:10097000300600207047000010B504000F4B1978B6
:10098000FA208000FFF7C0FB01000D4B1868FFF74D
:10099000BBFB00F0FBF800280DD1032C01D901208E
:1009A0000AE0013000222100404200F0DFF8054B50
:1009B0001C60002000E0012010BDC046040600209D
:1009C000000600200806002010B5064A1368102112
:1009D0000B4313600320FFF7CFFF00F035FF00202B
:1009E00010BDC04600200240034A1168034B1B782B
:1009F0005B1813607047C0460407002004060020FF
:100A0000014B18687047C0460407002010B503006A
:100A10000079002850D01A68002A57D05879012848
:100A200018D0022820D000280BD001209A79002A63
:100A30004BD0022A2CD0032A34D0012A1ED0012008
:100A400043E023494C6894434C601A680C68224385
:100A50000A60EBE71E490868904308601A68486816
:100A600002434A600020E1E71949086802430A602E
:100A70001A68486802434A600020D7E71C68144A95
:100A8000D168A143D1601B6891680B4393601CE05F
:100A90001C680F4A9168A14391601B68D1680B43A1
:100AA000D36012E019680A4A9468214391601B6878
:100AB000D1680B43D36008E01C68054A1168A14364
:100AC0001160196853688B43536010BD0020FCE728
:100AD0000004014070B5002811DB8308134DC033BA
:100AE0009B005C5903221040C000FC321600864077
:100AF000B44389010A40824022435A5170BD0F23FA
:100B00000340083B9B0806339B00094A9446634414
:100B10005C6803221040C000FC3215008540AC43E5
:100B200089010A40824022435A60E7E700E100E081
:100B300000ED00E0013880235B0498420FD2094A9F
:100B400050600948036A1B021B0AC02109060B43B7
:100B50000362002393600733136000207047012075
:100B6000FCE7C04610E000E000ED00E010B5FFF744
:100B7000B1FF10BD002805DB1F2202400123934076
:100B8000014A13607047C04600E100E010B5FFF76E
:100B9000D1FF10BD70B5066CC56B0124B4406C600C
:100BA000046863604368102B04D00368996003688D
:100BB000DA6070BD03689A600368D960F9E70000E5
:100BC00010B504000068054B9C4660441421FFF7F3
:100BD0009BFA80002064024BE36310BDF8FFFDBF69
:100BE0000000024070B5041E20D021250223435589
:100BF00001680A680E4B1A40436880680343E06846
:100C000003432069034360690343A0690343E06928
:100C1000034313430B602000FFF7D2FF0023A363BD
:100C2000012262551F32A354002070BD0120FCE751
:100C30000FC0FFFF70B504002020205C012832D0D7
:100C40002020012525540130205C012804D02023D8
:100C50000022E254022070BD2030013525540020CE
:100C6000A063256828680126B04328602000FFF7AC
:100C700091FFE36A002B0BD0226813680E210B430F
:100C800013602268136801210B4313600020E2E720
:100C9000226813680A210B4313602268136806391F
:100CA0008B431360EDE70220D5E710B52123C35C29
:100CB000022B06D0042383631C330022C25401207C
:100CC00010BD026813680E218B43136001680A6827
:100CD00001239A430A60016CC26B1C008C40546073
:100CE000212283541F330022C2540020E8E770B54C
:100CF000C36B1A6804682568016C04238B401A4290
:100D000012D06B0710D523689B0603D423680422F6
:100D100093432360016CC26B04238B405360C36A0E
:100D2000002B00D0984770BD02238B401A4218D088
:100D3000AB0716D523689B0606D423680A22934383
:100D400023602123093AC254016CC26B02238B40F9
:100D5000536020230022C254836A002BE3D09847BB
:100D6000E1E708238B401A42DDD02D07DBD523684D
:100D70000E2293432360016CC26B01231C008C4044
:100D800054608363212283541F330022C254036BB7
:100D9000002BC8D09847C6E7F0B583B0002356E0D3
:100DA00086685F000324BC40A643CC68BC40344343
:100DB0008460446894434E683609012232409A4068
:100DC0002243426053E0DE080836B6003758053249
:100DD0001A4092000F249440A7430C6994402200CB
:100DE0003A43325056E0032600E00026A640340085
:100DF0003C4302329200444E9451444A9768EA437D
:100E00003E00AE434C68E40201D53E002E433F4C09
:100E1000A660E7683E0016404C68A40201D53E007B
:100E20002E433A4CE66067683E0016404C68A403C7
:100E300001D53E002E43354C6660266832404C6832
:100E4000E40301D52A003243304C226001330C68A0
:100E50002200DA4056D001229A4025001540144263
:100E6000F4D04E6803243440013C012C98D94C68DE
:100E700003222240032A08D0C4685E000322B24045
:100E800094438A68B2402243C2604C6803222240E5
:100E9000022A98D004685E0003221700B740BC43C2
:100EA0004F683A40B240224302604C68C02292022E
:100EB0001442CBD0164CA66901221643A661A46940
:100EC00022400192019A9A08941CA4000E4EA75940
:100ED00003241C40A4000F26A640B7439026F60525
:100EE000B04282D00B4EB04208D00B4EB04207D079
:100EF0000A4EB04200D176E7052677E7012675E76E
:100F0000022673E703B0F0BD000001400004014079
:100F1000001002400004004800080048000C00488F
:100F20007047000010B5054B5B69184200D110BD39
:100F3000024B5861FFF7F4FFF9E7C0460004014097
:100F400030B5036A012293430362056A42688369EC
:100F50007324A3430C681C4302239D438B682B43DB
:100F6000154DA84208D0154DA84205D0144DA842F1
:100F700002D0144DA84206D10825AB431D00CB6812
:100F80002B430425AB430C4DA84208D00B4DA8427F
:100F900005D00B4DA84202D00A4DA84205D10A4DFA
:100FA0002A404D6915438A692A43426084614A6830
:100FB0004263036230BDC046002C01400040014046
:100FC0000044014000480140FFFCFFFF30B5036AC8
:100FD000184A13400362046A4268C3697325AB432D
:100FE0000D681D43144B1C408B681B022343134C9C
:100FF000A04209D0124CA0420DD0124CA0420AD0FF
:10100000114CA0420FD106E0104C1C40CB681B02D3
:1010100023430F4C23400F4C22404C6924011443BE
:101020008A69120122434260C5614A68C263036251
:1010300030BDC046FFFEFFFFFFFDFFFF002C01405B
:10104000004001400044014000480140FFF7FFFF1D
:10105000FFFBFFFFFFCFFFFF30B5036A134A1340CA
:101060000362046A4368C269114D2A400D682D026B
:101070001543104A14408A68120322430E4CA042C2
:1010800008D00E4CA04205D00D4CA04202D00D4C11
:10109000A04204D10C4C1C404B699B01234343608C
:1010A000C5614B680364026230BDC046FFEFFFFFBD
:1010B000FF8CFFFFFFDFFFFF002C014000400140DD
:1010C0000044014000480140FFBFFFFF30B5036A04
:1010D000046A0125AC4304628469EF35AC43120114
:1010E00022430A24A3430B438261036230BD000004
:1010F00030B5036A1024A34303628469036A054D73
:101100002C4012032243A024A34309011943826106
:10111000016230BDFF0FFFFF8368702293430B43D2
:10112000693A134383607047704770470368214AE8
:10113000904206D08022D205904202D01E4A9042B0
:1011400003D1702293434A6813431A4A904212D043
:101150008022D20590420ED0174A90420BD0174AF7
:10116000904208D0164A904205D0164A904202D0CA
:10117000154A904203D1154A1A40CB681343802286
:1011800093434A69134303608B68C3620B688362AD
:10119000084B984208D00A4B984205D0094B984218
:1011A00002D0094B984201D10B69036301234361CB
:1011B0007047C046002C0140000400400020004061
:1011C000004001400044014000480140FFFCFFFF97
:1011D00070B5041E26D03D23C35C002B1CD03D25DA
:1011E00002236355210001C9FFF7A0FF0123462216
:1011F000A354083AA3540132A3540132A354013238
:10120000A3540132A3540132A3540132A354013236
:10121000A3546355002070BD3C330022C25400F03B
:101220002BFBDCE70120F6E770B5041E26D03D233A
:10123000C35C002B1CD03D2502236355210001C94E
:10124000FFF774FF01234622A354083AA354013246
:10125000A3540132A3540132A3540132A3540132E6
:10126000A3540132A3540132A3546355002070BD2E
:101270003C330022C254FFF757FFDCE70120F6E7BA
:1012800070B5041E26D03D23C35C002B1CD03D2529
:1012900002236355210001C9FFF748FF01234622BD
:1012A000A354083AA3540132A3540132A354013287
:1012B000A3540132A3540132A3540132A354013286
:1012C000A3546355002070BD3C330022C254FFF785
:1012D0002CFFDCE70120F6E770B5036A1022934388
:1012E0000362026A44688369164D2B400D682D0223
:1012F0001D4320239A438B681B011343124A9042DB
:1013000009D0124A90420ED0114A90420BD0114A95
:10131000904210D107E0802293431E00CB681B014E
:101320003343403A93430C4A14404A6992002243A3
:101330008C69A4001443446085614A688263036237
:1013400070BDC046FF8CFFFF002C014000400140F3
:101350000044014000480140FFF3FFFF10B50400C6
:101360003C23C35C012B24D03C230120E054082AF9
:101370001AD008D8002A12D0042A0CD12068FFF70E
:10138000ABFF002007E00C2A04D12068FFF764FEC1
:10139000002000E001203C230022E25410BD206820
:1013A000FFF7CEFD0020F6E72068FFF70FFE0020D4
:1013B000F1E70220F2E7000070B504000D003C23C5
:1013C000C35C012B00D16AE03C230121C154082AEF
:1013D00050D01CD8002A38D0042A16D10068290021
:1013E000FFF77AFF2268916980231B010B43936109
:1013F000226893692B490B40936121688B692A69A4
:10140000120213438B6100201BE0080019E00C2A34
:1014100016D100682900FFF71FFE2268D1698023DA
:101420001B010B43D3612268D3691E490B40D36172
:101430002168CB692A6912021343CB61002000E0C6
:1014400001203C230022E25470BD00682900FFF710
:1014500077FD2268936908210B43936122689369A1
:1014600004398B4393612268936929690B43936123
:101470000020E6E700682900FFF7A8FD2268D3698D
:1014800008210B43D3612268D36904398B43D361AC
:101490002268D36929690B43D3610020D1E7022078
:1014A000D2E7C046FFFBFFFF30B58468034D2C40F8
:1014B0001B0213430B432343836030BDFF00FFFF38
:1014C00010B5040008003C23E35C012B00D177E059
:1014D0003C230122E25401330132E2542268936832
:1014E00038490B409360016860294FD029D84029C2
:1014F00057D00CD9502922D14168C2682068FFF723
:10150000E5FD20685021FFF707FE002005E02029B7
:101510000ED009D930290BD001203D230122E254FD
:10152000013B0022E25410BD002901D0102904D152
:101530002068FFF7F1FD0020EFE70120EDE7012033
:10154000EBE780225201914236D0802292019142F3
:101550000DD181684268C3682068FFF7A5FF226843
:1015600091688023DB010B4393600020D5E770294D
:1015700024D181684268C3682068FFF795FF22681C
:10158000936877210B4393600020C6E74168C268E7
:101590002068FFF7ADFD20686021FFF7BDFD00204A
:1015A000BBE74168C2682068FFF790FD20684021D2
:1015B000FFF7B2FD0020B0E70020AEE70120ACE766
:1015C0000220B0E78800FFFF10B51F231940012457
:1015D0008C40036AA3430362036A8A401343036295
:1015E00010BD000010B50400002936D13E23C35CB5
:1015F000013B5A1E9341DBB2002B62D1002945D139
:101600003E330222E25420680122FFF7DDFF236807
:101610002E4A934208D02E4A934205D02D4A934237
:1016200002D02D4A934204D1596C802212020A43FF
:101630005A642368254A934238D08022D2059342C7
:1016400034D0264A934231D0214A93422ED01A6890
:1016500001210A431A60002034E0042908D0082937
:101660000DD04123C35C013B5A1E9341DBB2C3E75B
:101670003F23C35C013B5A1E9341DBB2BCE74023CE
:10168000C35C013B5A1E9341DBB2B5E7042905D088
:10169000082907D041230222E254B4E73F23022263
:1016A000E254B0E740230222E254ACE799680722F3
:1016B0000A40062A07D01A6801210A431A6000204E
:1016C00000E0012010BD0020FCE7C046002C0140D6
:1016D0000040014000440140004801400004004037
:1016E00010B50400002936D13E23C35C013B5A1ECD
:1016F0009341DBB2002B62D1002945D13E33022257
:10170000E25420680122FFF75FFF23682E4A9342CC
:1017100008D02E4A934205D02D4A934202D02D4A3A
:10172000934204D1596C802212020A435A642368FE
:10173000254A934238D08022D205934234D0264A9B
:10174000934231D0214A93422ED01A6801210A4394
:101750001A60002034E0042908D008290DD0412364
:10176000C35C013B5A1E9341DBB2C3E73F23C35C1A
:10177000013B5A1E9341DBB2BCE74023C35C013BF3
:101780005A1E9341DBB2B5E7042905D0082907D0DA
:1017900041230222E254B4E73F230222E254B0E79D
:1017A00040230222E254ACE7996807220A40062A45
:1017B00007D01A6801210A431A60002000E00120C6
:1017C00010BD0020FCE7C046002C01400040014055
:1017D00000440140004801400004004030B53C2373
:1017E000C35C012B28D03C230122C25401330132B7
:1017F000C25403685C689D686E3294430A68224351
:101800005A6003680D4A934209D08022D205934260
:1018100005D00B4A934202D00A4A934204D1802257
:1018200095434A682A439A603D230122C254013BF2
:101830000022C254002030BD0220FCE7002C0140F1
:10184000000400400040014082B00A4B9969012227
:101850001143996199690A400092009ADA698021DE
:1018600049050A43DA61DB690B400193019B02B031
:101870007047C0460010024010B582B004000368F3
:101880008022D205934204D01A4A934227D002B054
:1018900010BD194AD16901231943D161D26913409E
:1018A0000093009B1548164B0360102343600023F0
:1018B00083608022C2608132FF3202618022120185
:1018C000426120228261C361FFF78CF9002803D1B5
:1018D0000A4B63625C62DAE7FEF718FFF8E7064A34
:1018E000D16902231943D161D26913400193019B4D
:1018F000CDE7C04600040040001002403006002042
:101900005800024010B586B004001422002101A83E
:1019100000F04FF822680C4B9A4201D006B010BD7F
:101920000A4B5A698021C9020A435A615B690B401C
:101930000093009B0123019302220292059301A9C7
:101940000348FFF729FAE9E70004004000100240CD
:1019500000040048014B18607047C0460006002094
:101960000D488546FFF706F80C480D490D4A00233F
:1019700002E0D458C4500433C4188C42F9D30A4A44
:101980000A4C002301E013600432A242FBD300F0B2
:1019900019F8FEF7A7FFFEE7002000200000002056
:1019A0000C060020641A00080C060020080700201E
:1019B000FEE703008218934200D17047197001338B
:1019C000F9E7000070B500260C4C0D4D641BA41007
:1019D000A64209D1002600F019F80A4C0A4D641BF2
:1019E000A410A64205D170BDB300EB58984701364C
:1019F000EEE7B300EB5898470136F2E75C1A0008AF
:101A00005C1A0008601A00085C1A0008F8B5C046A5
:101A1000F8BC08BC9E467047F8B5C046F8BC08BC88
:041A20009E46704727
:101A240057617665666F726D3A2053696E65000082
:101A340057617665666F726D3A20536177746F6F84
:101A44007468000057617665666F726D3A2054724F
:081A540069616E676C6500001A
:041A5C00E900000895
:041A6000C1000008B9
:101A64000000000010000000200000003000000012
:101A740040000000510000006100000071000000FF
:101A84008100000092000000A2000000B2000000EB
:101A9400C2000000D3000000E3000000F3000000D7
:101AA40003010000140100002401000034010000BF
:101AB40044010000550100006501000075010000AB
:101AC4008501000095010000A6010000B601000098
:101AD400C6010000D6010000E7010000F701000084
:101AE400070200001702000028020000380200006C
:101AF4004802000058020000690200007902000058
:101B04008902000099020000AA020000BA02000043
:101B1400CA020000DA020000EA020000FB02000030
:101B24000B0300001B0300002B0300003C03000018
:101B34004C0300005C0300006C0300007D03000004
:101B44008D0300009D030000AD030000BE030000F0
:101B5400CE030000DE030000EE030000FF030000DC
:101B6400FF030000EE030000DE030000CE030000CC
:101B7400BE030000AD0300009D0300008D030000C0
:101B84007D0300006C0300005C0300004C030000B4
:101B94003C0300002B0300001B0300000B030000A8
:101BA400FB020000EA020000DA020000CA020000A0
:101BB400BA020000AA020000990200008902000093
:101BC4007902000069020000580200004802000087
:101BD400380200002802000017020000070200007B
:101BE400F7010000E7010000D6010000C601000073
:101BF400B6010000A6010000950100008501000067
:101C04007501000065010000550100004401000059
:101C1400340100002401000014010000030100004D
:101C2400F3000000E3000000D3000000C200000045
:101C3400B2000000A2000000920000008100000039
:101C4400710000006100000051000000400000002D
:101C54003000000020000000100000000000000020
:101C64000000000008000000100000001800000040
:101C740020000000280000003000000038000000B0
:101C84004000000048000000500000005800000020
:101C94006000000068000000700000007800000090
:101CA40080000000880000009000000099000000FF
:101CB400A1000000A9000000B1000000B90000006C
:101CC400C1000000C9000000D1000000D9000000DC
:101CD400E1000000E9000000F1000000F90000004C
:101CE40001010000090100001101000019010000B8
:101CF400210100002A010000320100003A01000025
:101D0400420100004A010000520100005A01000093
:101D1400620100006A010000720100007A01000003
:101D2400820100008A010000920100009A01000073
:101D3400A2010000AA010000B2010000BB010000E2
:101D4400C3010000CB010000D3010000DB0100004F
:101D5400E3010000EB010000F3010000FB010000BF
:101D6400030200000B020000130200001B0200002B
:101D7400230200002B020000330200003B0200009B
:101D8400430200004C020000540200005C02000008
:101D9400640200006C020000740200007C02000077
:101DA400840200008C020000940200009C020000E7
:101DB400A4020000AC020000B4020000BC02000057
:101DC400C4020000CC020000D4020000DD020000C6
:101DD400E5020000ED020000F5020000FD02000033
:101DE400050300000D030000150300001D0300009F
:101DF400250300002D030000350300003D0300000F
:101E0400450300004D030000550300005D0300007E
:101E1400650300006E030000760300007E030000EB
:101E2400860300008E030000960300009E0300005A
:101E3400A6030000AE030000B6030000BE030000CA
:101E4400C6030000CE030000D6030000DE0300003A
:101E5400E6030000EE030000F6030000FF030000A9
:101E6400FF01000018020000310200004A020000D5
:101E7400630200007B02000093020000AB0200003A
:101E8400C3020000DA020000F002000006030000B2
:101E94001B0300003003000043030000570300004D
:101EA400690300007A0300008A0300009A0300001B
:101EB400A8030000B6030000C2030000CD03000025
:101EC400D8030000E1030000E8030000EF03000072
:101ED400F5030000F9030000FC030000FE0300000A
:101EE400FF030000FE030000FC030000F9030000F0
:101EF400F5030000EF030000E8030000E103000025
:101F0400D8030000CD030000C2030000B6030000A4
:101F1400A80300009A0300008A0300007A0300006B
:101F2400690300005703000043030000300300006E
:101F34001B03000006030000F0020000DA020000A8
:101F4400C3020000AB020000930200007B02000009
:101F5400630200004A02000031020000180200007F
:101F6400FF010000E6010000CD010000B401000003
:101F74009B010000830100006B010000530100007D
:101F84003B010000240100000E010000F8000000E5
:101F9400E3000000CE000000BB000000A70000002A
:101FA400950000008400000074000000640000003C
:101FB40056000000480000003C0000003100000012
:101FC400260000001D000000160000000F000000A5
:101FD40009000000050000000200000000000000ED
:101FE40000000000000000000200000005000000E6
:101FF400090000000F000000160000001D00000092
:1020040026000000310000003C00000048000000F1
:10201400560000006400000074000000840000000A
:1020240095000000A7000000BB000000CE000000E7
:10203400E3000000F80000000E010000240100008D
:102044003B010000530100006B010000830100000C
:102054009B010000B4010000CD010000E601000076
:0C20640000127A000100000004000000DF
:040000050800196175
:00000001FF
